{
  "contractName": "ECommerce",
  "abi": [
    {
      "anonymous": false,
      "inputs": [
        {
          "indexed": false,
          "internalType": "uint256",
          "name": "id",
          "type": "uint256"
        },
        {
          "indexed": false,
          "internalType": "string",
          "name": "name",
          "type": "string"
        },
        {
          "indexed": false,
          "internalType": "uint256",
          "name": "price",
          "type": "uint256"
        },
        {
          "indexed": false,
          "internalType": "address",
          "name": "seller",
          "type": "address"
        }
      ],
      "name": "ProductAdded",
      "type": "event"
    },
    {
      "anonymous": false,
      "inputs": [
        {
          "indexed": false,
          "internalType": "uint256",
          "name": "id",
          "type": "uint256"
        },
        {
          "indexed": false,
          "internalType": "address",
          "name": "buyer",
          "type": "address"
        }
      ],
      "name": "ProductSold",
      "type": "event"
    },
    {
      "inputs": [],
      "name": "productCount",
      "outputs": [
        {
          "internalType": "uint256",
          "name": "",
          "type": "uint256"
        }
      ],
      "stateMutability": "view",
      "type": "function",
      "constant": true
    },
    {
      "inputs": [
        {
          "internalType": "uint256",
          "name": "",
          "type": "uint256"
        }
      ],
      "name": "products",
      "outputs": [
        {
          "internalType": "uint256",
          "name": "id",
          "type": "uint256"
        },
        {
          "internalType": "string",
          "name": "name",
          "type": "string"
        },
        {
          "internalType": "uint256",
          "name": "price",
          "type": "uint256"
        },
        {
          "internalType": "address payable",
          "name": "seller",
          "type": "address"
        },
        {
          "internalType": "bool",
          "name": "sold",
          "type": "bool"
        }
      ],
      "stateMutability": "view",
      "type": "function",
      "constant": true
    },
    {
      "inputs": [
        {
          "internalType": "string",
          "name": "_name",
          "type": "string"
        },
        {
          "internalType": "uint256",
          "name": "_price",
          "type": "uint256"
        }
      ],
      "name": "addProduct",
      "outputs": [],
      "stateMutability": "nonpayable",
      "type": "function"
    },
    {
      "inputs": [
        {
          "internalType": "uint256",
          "name": "_id",
          "type": "uint256"
        }
      ],
      "name": "buyProduct",
      "outputs": [],
      "stateMutability": "payable",
      "type": "function",
      "payable": true
    }
  ],
  "bytecode": "0x60806040525f8055348015610012575f80fd5b50610e35806100205f395ff3fe60806040526004361061003e575f3560e01c80637acc0b20146100425780638642269e14610082578063b15247d91461009e578063e0f6ef87146100c6575b5f80fd5b34801561004d575f80fd5b5061006860048036038101906100639190610557565b6100f0565b604051610079959493929190610674565b60405180910390f35b61009c60048036038101906100979190610557565b6101d4565b005b3480156100a9575f80fd5b506100c460048036038101906100bf91906107f8565b610391565b005b3480156100d1575f80fd5b506100da61050e565b6040516100e79190610852565b60405180910390f35b6001602052805f5260405f205f91509050805f01549080600101805461011590610898565b80601f016020809104026020016040519081016040528092919081815260200182805461014190610898565b801561018c5780601f106101635761010080835404028352916020019161018c565b820191905f5260205f20905b81548152906001019060200180831161016f57829003601f168201915b505050505090806002015490806003015f9054906101000a900473ffffffffffffffffffffffffffffffffffffffff16908060030160149054906101000a900460ff16905085565b5f60015f8381526020019081526020015f2090505f821180156101f857505f548211155b610237576040517f08c379a000000000000000000000000000000000000000000000000000000000815260040161022e90610912565b60405180910390fd5b806002015434101561027e576040517f08c379a00000000000000000000000000000000000000000000000000000000081526004016102759061097a565b60405180910390fd5b8060030160149054906101000a900460ff16156102d0576040517f08c379a00000000000000000000000000000000000000000000000000000000081526004016102c7906109e2565b60405180910390fd5b806003015f9054906101000a900473ffffffffffffffffffffffffffffffffffffffff1673ffffffffffffffffffffffffffffffffffffffff166108fc3490811502906040515f60405180830381858888f19350505050158015610336573d5f803e3d5ffd5b5060018160030160146101000a81548160ff0219169083151502179055507fbdb79f0b777669cf4d01754a6d6b461bdd8d0f18b57c036e7d4bf3a567f337848233604051610385929190610a20565b60405180910390a15050565b5f81116103d3576040517f08c379a00000000000000000000000000000000000000000000000000000000081526004016103ca90610ab7565b60405180910390fd5b5f808154809291906103e490610b02565b91905055506040518060a001604052805f5481526020018381526020018281526020013373ffffffffffffffffffffffffffffffffffffffff1681526020015f151581525060015f805481526020019081526020015f205f820151815f015560208201518160010190816104589190610ce6565b50604082015181600201556060820151816003015f6101000a81548173ffffffffffffffffffffffffffffffffffffffff021916908373ffffffffffffffffffffffffffffffffffffffff16021790555060808201518160030160146101000a81548160ff0219169083151502179055509050507f52402cafb2ecec722b103e8f203f83362148c168659dc96678c2c6850d12dd9f5f548383336040516105029493929190610db5565b60405180910390a15050565b5f5481565b5f604051905090565b5f80fd5b5f80fd5b5f819050919050565b61053681610524565b8114610540575f80fd5b50565b5f813590506105518161052d565b92915050565b5f6020828403121561056c5761056b61051c565b5b5f61057984828501610543565b91505092915050565b61058b81610524565b82525050565b5f81519050919050565b5f82825260208201905092915050565b5f5b838110156105c85780820151818401526020810190506105ad565b5f8484015250505050565b5f601f19601f8301169050919050565b5f6105ed82610591565b6105f7818561059b565b93506106078185602086016105ab565b610610816105d3565b840191505092915050565b5f73ffffffffffffffffffffffffffffffffffffffff82169050919050565b5f6106448261061b565b9050919050565b6106548161063a565b82525050565b5f8115159050919050565b61066e8161065a565b82525050565b5f60a0820190506106875f830188610582565b818103602083015261069981876105e3565b90506106a86040830186610582565b6106b5606083018561064b565b6106c26080830184610665565b9695505050505050565b5f80fd5b5f80fd5b7f4e487b71000000000000000000000000000000000000000000000000000000005f52604160045260245ffd5b61070a826105d3565b810181811067ffffffffffffffff82111715610729576107286106d4565b5b80604052505050565b5f61073b610513565b90506107478282610701565b919050565b5f67ffffffffffffffff821115610766576107656106d4565b5b61076f826105d3565b9050602081019050919050565b828183375f83830152505050565b5f61079c6107978461074c565b610732565b9050828152602081018484840111156107b8576107b76106d0565b5b6107c384828561077c565b509392505050565b5f82601f8301126107df576107de6106cc565b5b81356107ef84826020860161078a565b91505092915050565b5f806040838503121561080e5761080d61051c565b5b5f83013567ffffffffffffffff81111561082b5761082a610520565b5b610837858286016107cb565b925050602061084885828601610543565b9150509250929050565b5f6020820190506108655f830184610582565b92915050565b7f4e487b71000000000000000000000000000000000000000000000000000000005f52602260045260245ffd5b5f60028204905060018216806108af57607f821691505b6020821081036108c2576108c161086b565b5b50919050565b7f50726f647563746f206e6f2065786973746500000000000000000000000000005f82015250565b5f6108fc60128361059b565b9150610907826108c8565b602082019050919050565b5f6020820190508181035f830152610929816108f0565b9050919050565b7f466f6e646f7320696e737566696369656e7465730000000000000000000000005f82015250565b5f61096460148361059b565b915061096f82610930565b602082019050919050565b5f6020820190508181035f83015261099181610958565b9050919050565b7f50726f647563746f2079612076656e6469646f000000000000000000000000005f82015250565b5f6109cc60138361059b565b91506109d782610998565b602082019050919050565b5f6020820190508181035f8301526109f9816109c0565b9050919050565b5f610a0a8261061b565b9050919050565b610a1a81610a00565b82525050565b5f604082019050610a335f830185610582565b610a406020830184610a11565b9392505050565b7f456c2070726563696f206465626520736572206d61796f7220717565206365725f8201527f6f00000000000000000000000000000000000000000000000000000000000000602082015250565b5f610aa160218361059b565b9150610aac82610a47565b604082019050919050565b5f6020820190508181035f830152610ace81610a95565b9050919050565b7f4e487b71000000000000000000000000000000000000000000000000000000005f52601160045260245ffd5b5f610b0c82610524565b91507fffffffffffffffffffffffffffffffffffffffffffffffffffffffffffffffff8203610b3e57610b3d610ad5565b5b600182019050919050565b5f819050815f5260205f209050919050565b5f6020601f8301049050919050565b5f82821b905092915050565b5f60088302610ba57fffffffffffffffffffffffffffffffffffffffffffffffffffffffffffffffff82610b6a565b610baf8683610b6a565b95508019841693508086168417925050509392505050565b5f819050919050565b5f610bea610be5610be084610524565b610bc7565b610524565b9050919050565b5f819050919050565b610c0383610bd0565b610c17610c0f82610bf1565b848454610b76565b825550505050565b5f90565b610c2b610c1f565b610c36818484610bfa565b505050565b5b81811015610c5957610c4e5f82610c23565b600181019050610c3c565b5050565b601f821115610c9e57610c6f81610b49565b610c7884610b5b565b81016020851015610c87578190505b610c9b610c9385610b5b565b830182610c3b565b50505b505050565b5f82821c905092915050565b5f610cbe5f1984600802610ca3565b1980831691505092915050565b5f610cd68383610caf565b9150826002028217905092915050565b610cef82610591565b67ffffffffffffffff811115610d0857610d076106d4565b5b610d128254610898565b610d1d828285610c5d565b5f60209050601f831160018114610d4e575f8415610d3c578287015190505b610d468582610ccb565b865550610dad565b601f198416610d5c86610b49565b5f5b82811015610d8357848901518255600182019150602085019450602081019050610d5e565b86831015610da05784890151610d9c601f891682610caf565b8355505b6001600288020188555050505b505050505050565b5f608082019050610dc85f830187610582565b8181036020830152610dda81866105e3565b9050610de96040830185610582565b610df66060830184610a11565b9594505050505056fea2646970667358221220bcd34d480f65bb7ad46e7e825b802e0f76277053cddb2a11f961d86ecf666d8464736f6c63430008150033",
  "immutableReferences": {},
  "source": "// SPDX-License-Identifier: MIT\r\npragma solidity ^0.8.0;\r\n\r\ncontract ECommerce {\r\n    struct Product {\r\n        uint id;\r\n        string name;\r\n        uint price;\r\n        address payable seller;\r\n        bool sold;\r\n    }\r\n\r\n    uint public productCount = 0;\r\n    mapping(uint => Product) public products;\r\n\r\n    event ProductAdded(uint id, string name, uint price, address seller);\r\n    event ProductSold(uint id, address buyer);\r\n\r\n    function addProduct(string memory _name, uint _price) public {\r\n        require(_price > 0, \"El precio debe ser mayor que cero\");\r\n        productCount++;\r\n        products[productCount] = Product(productCount, _name, _price, payable(msg.sender), false);\r\n        emit ProductAdded(productCount, _name, _price, msg.sender);\r\n    }\r\n\r\n    function buyProduct(uint _id) public payable {\r\n        Product storage product = products[_id];\r\n        require(_id > 0 && _id <= productCount, \"Producto no existe\");\r\n\t    require(msg.value >= product.price, \"Fondos insuficientes\");\r\n        require(!product.sold, \"Producto ya vendido\");\r\n\r\n        product.seller.transfer(msg.value);\r\n        product.sold = true;\r\n\r\n        emit ProductSold(_id, msg.sender);\r\n    }\r\n}\r\n",
  "sourcePath": "C:\\Users\\guill\\FINAL_proyecto_angular\\A-trade-Ecommerce-en-Angular-main\\A-trade-Ecommerce-en-Angular-main\\contracts\\Ecommerce.sol",
  "compiler": {
    "name": "solc",
    "version": "0.8.21+commit.d9974bed.Emscripten.clang"
  },
  "schemaVersion": "3.4.16",
  "updatedAt": "2025-05-23T20:40:14.822Z",
  "networkType": "ethereum",
  "devdoc": {
    "kind": "dev",
    "methods": {},
    "version": 1
  },
  "userdoc": {
    "kind": "user",
    "methods": {},
    "version": 1
  }
}